S01A0000416E616C6F672044617461204C6F676765722E737265639E
S11300000C942A000C94D6050C94FF050C94280635
S11300100C9447000C9447000C9447000C94470040
S11300200C9447000C9447000C9447000C94470030
S11300300C9447000C9451060C9447000C947A06D7
S11300400C943E030C9447000C9447000C94470016
S11300500C94470011241FBECFE5D8E0DEBFCDBF0E
S113006010E0A0E6B0E0E8E4F0E102C005900D92F3
S1130070A43AB107D9F720E0A4EAB0E001C01D9288
S1130080A33BB207E1F70E940C030C9422080C94E2
S11300900000CF93C82F60E083E00E94BA046C2F65
S11300A0661F6627661F8BE00E94BA04C6FB66279C
S11300B060F98AE00E94BA04C5FB662760F989E00A
S11300C00E94BA04C4FB662760F988E00E94BA045F
S11300D061E082E00E94BA048FE99FE00197F1F7A2
S11300E000C0000060E082E00E94BA048FE99FE053
S11300F00197F1F700C00000C3FB662760F98BE0AD
S11301000E94BA04C2FB662760F98AE00E94BA041E
S1130110C1FB662760F989E00E94BA046C2F617004
S113012088E00E94BA0461E082E00E94BA048FE988
S11301309FE00197F1F700C0000060E082E00E94B8
S1130140BA048FE99FE00197F1F700C00000CF9156
S11301500895CF93C82F61E083E00E94BA046C2F06
S1130160661F6627661F8BE00E94BA04C6FB6627DB
S113017060F98AE00E94BA04C5FB662760F989E049
S11301800E94BA04C4FB662760F988E00E94BA049E
S113019061E082E00E94BA048FE99FE00197F1F7E1
S11301A000C0000060E082E00E94BA048FE99FE092
S11301B00197F1F700C00000C3FB662760F98BE0EC
S11301C00E94BA04C2FB662760F98AE00E94BA045E
S11301D0C1FB662760F989E00E94BA046C2F617044
S11301E088E00E94BA0461E082E00E94BA048FE9C8
S11301F09FE00197F1F700C0000060E082E00E94F8
S1130200BA048FE99FE00197F1F700C00000CF9195
S113021008952FEF80E792E0215080409040E1F76D
S113022000C0000082E00E94490088E20E94490068
S11302308CE00E94490081E00E9449008FE99FE020
S11302400197F1F700C0000086E00E94490008957C
S11302500E94A90008950F931F93CF938C01C0E0CF
S113026003C00E942801CF5FF801EC0FF11D8081CB
S11302708111F7CFCF911F910F910895811105C07E
S1130280862F80680E9449000895813021F480EC13
S1130290860F0E9449000895CF93DF93C82FD62F6D
S11302A0811105C080E8860F0E94490006C0813094
S11302B021F480EC860F0E944900C23029F484E9BD
S11302C08D0F0E94490006C0C33021F484ED8D0FC8
S11302D00E944900DF91CF910895CF92DF92EF926F
S11302E0FF921F93CF93DF93CDB7DEB72A970FB654
S11302F0F894DEBF0FBECDBF6B017C0161157105A3
S11303008105910521F480E30E94280139C09923D5
S11303105CF4F094E094D094C094C11CD11CE11C12
S1130320F11C8DE20E94280110E015C0C701B6013E
S11303302AE030E040E050E00E94D207E1E0F0E043
S1130340EC0FFD1FE10FF11D605D60831F5FC22E86
S1130350D32EE42EF52EC114D104E104F10431F7B7
S11303600DC0E12FF0E0319781E090E08C0F9D1FEC
S1130370E80FF91F80810E94280111501111F1CF5B
S11303802A960FB6F894DEBF0FBECDBFDF91CF9192
S11303901F91FF90EF90DF90CF900895CF93DF935C
S11303A0D42F0E944C01C0E004C080E20E942801C6
S11303B0CF5FCD17D0F3DF91CF91089561E088E14D
S11303C00E94BA04089561E08AE10E94BA04089583
S11303D060E08AE10E94BA048091A60081110CC0F9
S11303E08091A400811108C08091A500811104C0EE
S11303F060E088E10E94BA040895CF92DF92EF9200
S1130400FF92CF930E949603C82F80916000909131
S113041061008530910509F050C00E943A032C2FE9
S113042030E0AEEEB2E00E94F1070E94440720E003
S113043030ED4FEB54E40E94A3060E9415076B01B4
S11304407C0183E3C816D10490F060E083E00E944D
S11304504C0182E690E00E942B0161E08DE00E9455
S1130460BA0481E08093A6000E94E3010DC01092BB
S1130470A60046E060E083E00E94CE0160E08DE0EB
S11304800E94BA040E94E80160E080E00E943E01FC
S113049085E690E00E942B01B60180E090E00E9486
S11304A06D018091600090916100019690936100CC
S11304B0809360000E943603A3C08630910509F042
S11304C050C00E943A032C2F30E0AEEEB2E00E94FE
S11304D0F1070E94440720E030ED4FEB54E40E9402
S11304E0A3060E9415076B017C0183E3C816D1049F
S11304F090F081E08093A40068E083E00E944C01C6
S11305008AE690E00E942B0161E08EE00E94BA042A
S11305100E94E3010DC01092A40046E067E083E06E
S11305200E94CE0160E08EE00E94BA040E94E801BD
S113053067E080E00E943E018DE690E00E942B017E
S1130540B60180E090E00E946D018091600090917E
S11305506100019690936100809360000E943603CD
S11305604FC0079709F04CC00E943A032C2F30E08B
S1130570AEEEB2E00E94F1070E94440720E030EDA5
S11305804FEB54E40E94A3060E9415076B017C0103
S113059083E3C816D10490F081E08093A50060E164
S11305A083E00E944C0182E790E00E942B0161E00D
S11305B08FE00E94BA040E94E3010DC01092A500CE
S11305C046E06EE083E00E94CE0160E08FE00E948E
S11305D0BA040E94E8016EE080E00E944C0185E7C5
S11305E090E00E942B01B60180E090E00E946D0132
S11305F085E090E090936100809360000E94360350
S1130600809160000E948F030E948B03CF91FF9022
S1130610EF90DF90CF9008950E94AA040E940901F0
S1130620789466E081E00E94670380E00E944F05B1
S113063063E080E00E9461056EED71E080E00E945D
S1130640C10560E08AE10E94BA048DEF91E00E9446
S113065031030E94360385E00E948F030E948B03BE
S1130660FFCF9093A8008093A700089586B1886077
S113067086B9089586B1877F86B908951F920F922F
S11306800FB60F9211242F933F934F935F936F9361
S11306907F938F939F93AF93BF93EF93FF93E091D7
S11306A0A700F091A800309709F00995FF91EF9108
S11306B0BF91AF919F918F917F916F915F914F9176
S11306C03F912F910F900FBE0F901F90189581307E
S11306D059F018F0823079F014C087B18F7787B958
S11306E087B18F7B87B90DC087B18F7787B987B101
S11306F0806487B906C087B1806887B987B1806490
S113070087B986B1887F86B986B1682B66B986B108
S1130710806886B9089586B1806486B9089597B1D2
S1130720907E97B997B1892B87B9089584B195B113
S11307300895982F9695969596958770613009F44B
S113074059C020F0623009F4A9C0FCC09130C9F04E
S113075028F0923049F19330D1F1F6C04AB321E048
S113076030E0B90102C0660F771F8A95E2F7CB012A
S1130770942F982B9ABB9BB3809589238BBB80E0E5
S1130780089547B321E030E0B90102C0660F771F36
S11307908A95E2F7CB01942F982B97BB98B3809559
S11307A0892388BB80E0089544B321E030E0B90197
S11307B002C0660F771F8A95E2F7CB01942F982B1E
S11307C094BB95B38095892385BB80E0089541B39C
S11307D021E030E0B90102C0660F771F8A95E2F785
S11307E0CB01942F982B91BB92B38095892382BB24
S11307F080E008959130C9F028F0923049F19330A7
S1130800D1F1A4C04AB321E030E0B90102C0660FBF
S1130810771F8A95E2F7CB018095942F98239ABB92
S11308209BB389238BBB80E0089547B321E030E07C
S1130830B90102C0660F771F8A95E2F7CB01809554
S1130840942F982397BB98B3892388BB80E008959D
S113085044B321E030E0B90102C0660F771F8A95E6
S1130860E2F7CB018095942F982394BB95B3892309
S113087085BB80E0089541B321E030E0B90102C0B6
S1130880660F771F8A95E2F7CB018095942F982302
S113089091BB92B3892382BB80E008959130C9F063
S11308A028F0923049F19330D1F152C04AB321E09B
S11308B030E0B90102C0660F771F8A95E2F7CB01D9
S11308C0962F909594239ABB9BB3892B8BBB80E086
S11308D0089547B321E030E0B90102C0660F771FE5
S11308E08A95E2F7CB01962F9095942397BB98B302
S11308F0892B88BB80E0089544B321E030E0B9013E
S113090002C0660F771F8A95E2F7CB01962F909568
S1130910942394BB95B3892B85BB80E0089541B3A0
S113092021E030E0B90102C0660F771F8A95E2F733
S1130930CB01962F9095942391BB92B3892B82BBC4
S113094080E0089581E0089581E0089581E00895AC
S113095081E00895CF93C0E009C0EC2FF0E0EC579C
S1130960FF4F60818C2F0E949903CF5FC032A8F3A0
S1130970CF910895982F96959695969587706623AE
S113098009F443C0613009F084C09130A1F028F02B
S11309909230F9F0933059F17EC04BB321E030E04E
S11309A0B90102C0660F771F8A95E2F7CB01842B49
S11309B08BBB80E0089548B321E030E0B90102C068
S11309C0660F771F8A95E2F7CB01842B88BB80E002
S11309D0089545B321E030E0B90102C0660F771FE6
S11309E08A95E2F7CB01842B85BB80E0089542B35E
S11309F021E030E0B90102C0660F771F8A95E2F763
S1130A00CB01842B82BB80E008959130A9F028F0BB
S1130A10923009F1933071F140C04BB321E030E0E2
S1130A20B90102C0660F771F8A95E2F7CB01809562
S1130A3084238BBB80E0089548B321E030E0B90102
S1130A4002C0660F771F8A95E2F7CB018095842355
S1130A5088BB80E0089545B321E030E0B90102C0CD
S1130A60660F771F8A95E2F7CB018095842385BBB7
S1130A7080E0089542B321E030E0B90102C0660F7E
S1130A80771F8A95E2F7CB018095842382BB80E0AF
S1130A90089583E0089581E0089581E00895813008
S1130AA041F018F0823049F008958BB780648BBF11
S1130AB008958BB780688BBF08958BB780628BBF16
S1130AC00895813049F120F0823009F449C0089535
S1130AD0613069F028F0623089F06330B1F0089534
S1130AE085B78E7F85BF85B78D7F85BF089585B710
S1130AF0816085BF85B78D7F85BF089585B78E7F5B
S1130B0085BF85B7826085BF089585B7816085BF3D
S1130B1085B7826085BF0895613069F028F062303E
S1130B2089F06330B1F0089585B78B7F85BF85B7B1
S1130B30877F85BF089585B7846085BF85B7877F24
S1130B4085BF089585B78B7F85BF85B7886085BFCE
S1130B50089585B7846085BF85B7886085BF08958B
S1130B60623019F0633029F008C084B78F7B84BFEA
S1130B70089584B7806484BF089584B78F7B84BF4D
S1130B800895813049F018F0823059F00895709337
S1130B90AE006093AD0008957093AC006093AB0019
S1130BA008957093AA006093A90008951F920F926C
S1130BB00FB60F9211242F933F934F935F936F932C
S1130BC07F938F939F93AF93BF93EF93FF93E091A2
S1130BD0AD00F091AE00309709F00995FF91EF91C7
S1130BE0BF91AF919F918F917F916F915F914F9141
S1130BF03F912F910F900FBE0F901F9018951F9249
S1130C000F920FB60F9211242F933F934F935F933C
S1130C106F937F938F939F93AF93BF93EF93FF93C0
S1130C20E091AB00F091AC00309709F00995FF9189
S1130C30EF91BF91AF919F918F917F916F915F9150
S1130C404F913F912F910F900FBE0F901F901895C9
S1130C501F920F920FB60F9211242F933F934F932D
S1130C605F936F937F938F939F93AF93BF93EF9310
S1130C70FF93E091A900F091AA00309709F009953B
S1130C80FF91EF91BF91AF919F918F917F916F9160
S1130C905F914F913F912F910F900FBE0F901F9036
S1130CA018951F920F920FB60F9211242F933F9312
S1130CB04F935F936F937F938F939F93AF93BF9360
S1130CC0EF93FF93E091B100F091B200309709F0F7
S1130CD00995FF91EF91BF91AF919F918F917F9172
S1130CE06F915F914F913F912F910F900FBE0F9095
S1130CF01F9018951F920F920FB60F9211242F93E5
S1130D003F934F935F936F937F938F939F93AF938F
S1130D10BF93EF93FF93E091AF00F091B000309751
S1130D2009F00995FF91EF91BF91AF919F918F9138
S1130D307F916F915F914F913F912F910F900FBED3
S1130D400F901F9018950E94B7060C9498070E9464
S1130D50910758F00E948A0740F029F45F3F29F078
S1130D600C94810751110C94CC070C9487070E94B2
S1130D70A90768F39923B1F3552391F3951B550BF8
S1130D80BB27AA2762177307840738F09F5F5F4F5A
S1130D90220F331F441FAA1FA9F335D00E2E3AF099
S1130DA0E0E832D091505040E695001CCAF72BD0B1
S1130DB0FE2F29D0660F771F881FBB1F2617370702
S1130DC04807AB07B0E809F0BB0B802DBF01FF2734
S1130DD093585F4F3AF09E3F510578F00C94810789
S1130DE00C94CC075F3FE4F3983ED4F38695779553
S1130DF06795B795F7959F5FC9F7880F911D9695ED
S1130E00879597F90895E1E0660F771F881FBB1F48
S1130E10621773078407BA0720F0621B730B840BF5
S1130E20BA0BEE1F88F7E09508950E94B10788F089
S1130E309F5798F0B92F9927B751B0F0E1F0660F9A
S1130E40771F881F991F1AF0BA95C9F714C0B130DB
S1130E5091F00E94CB07B1E008950C94CB07672F63
S1130E60782F8827B85F39F0B93FCCF3869577950A
S1130E706795B395D9F73EF49095809570956195F3
S1130E807F4F8F4F9F4F0895E89409C097FB3EF41E
S1130E9090958095709561957F4F8F4F9F4F9923C3
S1130EA0A9F0F92F96E9BB279395F6958795779541
S1130EB06795B795F111F8CFFAF4BB0F11F460FF01
S1130EC01BC06F5F7F4F8F4F9F4F16C0882311F059
S1130ED096E911C0772321F09EE8872F762F05C06D
S1130EE0662371F096E8862F70E060E02AF09A9508
S1130EF0660F771F881FDAF7880F9695879597F9FD
S1130F00089597F99F6780E870E060E008959FEF87
S1130F1080EC089500240A9416161706180609068C
S1130F20089500240A94121613061406050608955B
S1130F30092E0394000C11F4882352F0BB0F40F4E3
S1130F40BF2B11F460FF04C06F5F7F4F8F4F9F4F23
S1130F50089557FD9058440F551F59F05F3F71F0A5
S1130F604795880F97FB991F61F09F3F79F087950C
S1130F700895121613061406551FF2CF4695F1DF95
S1130F8008C0161617061806991FF1CF8695710525
S1130F90610508940895E894BB2766277727CB0159
S1130FA097F90895052E97FB1EF400940E94E90713
S1130FB057FD07D00E94000807FC03D04EF40C94A0
S1130FC0E90750954095309521953F4F4F4F5F4F1E
S1130FD0089590958095709561957F4F8F4F9F4FA1
S1130FE00895A29FB001B39FC001A39F700D811DFE
S1130FF01124911DB29F700D811D1124911D08951E
S1131000A1E21A2EAA1BBB1BFD010DC0AA1FBB1F08
S1131010EE1FFF1FA217B307E407F50720F0A21B7A
S1131020B30BE40BF50B661F771F881F991F1A94E7
S113103069F760957095809590959B01AC01BD0111
S10B1040CF010895F894FFCFDD
S1131048050053310053313A200053320053323AE9
S1131058200053330053333A2000202020005458F2
S113106800525800010000000001010100000000C6
S1131078000000000000020202020000000000005C
S10710880000000060
S9030000FC
