:100000000C942A000C943F000C943F000C943F0089
:100010000C943F000C943F000C943F000C943F0064
:100020000C943F000C943F000C943F000C943F0054
:100030000C943F000C943F000C943F000C943F0044
:100040000C943F000C943F000C943F000C943F0034
:100050000C943F0011241FBECFE5D8E0DEBFCDBF1A
:1000600010E0A0E6B0E0ECEDFBE002C005900D92E0
:10007000AC3AB107D9F70E945C030C94EC050C94E0
:100080000000AF92BF92CF92DF92EF92FF920F9358
:100090001F93CF93DF93CDB7DEB768970FB6F89471
:1000A000DEBF0FBECDBF80E1E5E6F0E0DE011196D8
:1000B00001900D928A95E1F787E0898B86E08A8B23
:1000C00095E09B8B83E08C8B9D8B94E09E8B8F8B3C
:1000D00082E0888FB12C43C0CB2CD12CE1E1F0E041
:1000E000EC0FFD1FEC0DFD1DA08040E06A2D84E0AB
:1000F0000E94B30410E02BC0E12EF12CE5E1F0E00A
:10010000EC0FFD1FEE0DFF1D0081602F83E00E94AC
:10011000310581111BC0EE0CFF1CEE0CFF1C81E0B1
:1001200090E08C0F9D1FE80EF91EF701EC0DFD1DF0
:100130001081602F83E00E9431058823D1F341E0D4
:100140006A2D84E00E94B304812F0EC01F5F14301B
:1001500098F241E06A2D84E00E94B304B39493E0E6
:100160009B1508F0B9CF8FEF68960FB6F894DEBFF5
:100170000FBECDBFDF91CF911F910F91FF90EF90F8
:10018000DF90CF90BF90AF900895CF93C82F40E0FD
:1001900063E081E00E94B30441E062E081E00E94FC
:1001A000B304C4FB442740F960E082E00E94B3043A
:1001B000C5FB442740F961E082E00E94B304C6FB1E
:1001C000442740F962E082E00E94B3044C2F441FB0
:1001D0004427441F64E082E00E94B30440E062E0F0
:1001E00081E00E94B30441E062E081E00E94B30438
:1001F0004C2F417060E082E00E94B304C1FB4427B1
:1002000040F961E082E00E94B304C2FB442740F958
:1002100062E082E00E94B304C3FB442740F964E03B
:1002200082E00E94B30440E062E081E00E94B304F7
:1002300081EE94E00197F1F700C00000CF9108959E
:10024000CF93C82F40E063E081E00E94B30441E017
:1002500062E081E00E94B304C4FB442740F960E0FF
:1002600082E00E94B304C5FB442740F961E082E0CC
:100270000E94B304C6FB442740F962E082E00E947A
:10028000B3044C2F441F4427441F64E082E00E94C3
:10029000B30440E062E081E00E94B30481EE94E0A8
:1002A0000197F1F700C00000CF9108958DE292E22E
:1002B0000197F1F700C0000080E30E94200181EE69
:1002C00094E00197F1F700C0000080E30E94200154
:1002D00089EF90E00197F1F700C0000080E30E94F1
:1002E000200189EF90E00197F1F700C0000080E263
:1002F0000E94200189EF90E00197F1F700C0000013
:1003000088E20E94C50089EF90E00197F1F700C0F4
:10031000000088E00E94C50089EF90E00197F1F7A6
:1003200000C0000081E00E94C50081EE94E00197CA
:10033000F1F700C000008CE00E94C50089EF90E05A
:100340000197F1F700C0000086E00E94C50089EF28
:1003500090E00197F1F700C000000895CF93C82FF7
:1003600041E063E081E00E94B30441E062E081E0AB
:100370000E94B304C4FB442740F960E082E00E947D
:10038000B304C5FB442740F961E082E00E94B30456
:10039000C6FB442740F962E082E00E94B3044C2F80
:1003A000441F4427441F64E082E00E94B30440E0FD
:1003B00062E081E00E94B30441E062E081E00E94DB
:1003C000B3044C2F417060E082E00E94B304C1FB93
:1003D000442740F961E082E00E94B304C2FB442755
:1003E00040F962E082E00E94B304C3FB442740F975
:1003F00064E082E00E94B30440E062E081E00E9499
:10040000B30481EE94E00197F1F700C00000CF91B2
:1004100008950F931F93CF938C01C0E003C00E94F7
:10042000AE01CF5FF801EC0FF11D80818111F7CF94
:10043000CF911F910F9108958F929F92AF92BF928B
:10044000CF92DF92EF92FF920F931F93CF93DF93A0
:100450008A01FA01138A992364F490958095709526
:1004600061957F4F8F4F9F4F812C912C5401839426
:1004700003C0812C912C54010F2EF2E1CF2ED12CF0
:10048000E12CF12CF02D14C0E801CC0DDD1D2AE08B
:1004900030E040E050E00E94AB05605D6883622F71
:1004A000732F842F952FF1E0CF1AD108E108F108BE
:1004B000611571058105910539F789288A288B28EE
:1004C00051F0F801EC0DFD1D8DE2808321E0C21A90
:1004D000D108E108F1088FEFC81AD80AE80AF80A2B
:1004E000C8018C0D9D1DDF91CF911F910F91FF9041
:1004F000EF90DF90CF90BF90AF909F908F90089536
:10050000CF93DF93CDB7DEB764970FB6F894DEBF15
:100510000FBECDBF611571058105910541F0AE019A
:100520004F5F5F4F0E941C020E94090203C080E3DC
:100530000E94AE0164960FB6F894DEBF0FBECDBF29
:10054000DF91CF910895811103C080E8860F10C01C
:10055000813019F480EC860F0BC0823019F484E9E5
:10056000860F06C0833019F484ED860F01C080E841
:1005700080680E94C50008950F931F93CF938C014C
:10058000C62F842F622F0E94A3028C2F0E94AE01DF
:10059000C83098F48C2F880F880F880F8F7780646D
:1005A0000E94C500C0E007C0F801EC0FF11D80817A
:1005B0000E94AE01CF5FC830B8F382E00E94C50050
:1005C000CF911F910F9108950E9441008F3F09F430
:1005D00072C08430E1F480916000882361F08091E2
:1005E00062008F5F80936200843008F464C081E011
:1005F000809362000895809164008F5F809364000F
:10060000843008F458C081E08093640008958A32F1
:10061000D9F48091600081110CC0809161008F5FDE
:1006200080936100843008F446C081E080936100CB
:100630000895809164008F5F809364008430D8F1C6
:1006400081E08093640008958730D1F48091600048
:10065000813059F480916200815080936200811151
:100660002AC083E0809362000895809164008150E5
:100670008093640081111FC083E08093640008951B
:100680008F32C9F48091600081110BC080916100AC
:1006900081508093610081110EC083E080936100DE
:1006A000089580916400815080936400811103C09B
:1006B00083E0809364000895CF93DF93CDB7DEB7D6
:1006C000A9970FB6F894DEBF0FBECDBF0E94830579
:1006D0006FEF83E00E9494050E94560188E0E5E7F1
:1006E000F0E0DE01119601900D928A95E1F788E025
:1006F000EDE7F0E0DE01199601900D928A95E1F7A1
:1007000088E0E5E8F0E0DE01519601900D928A95CF
:10071000E1F789E0EBE9F0E0DE01599601900D92F6
:100720008A95E1F788E0E4EAF0E0DE019296019034
:100730000D928A95E1F740E066E083E00E94B30401
:1007400060E080E00E94A30200E010E081E00E94EF
:10075000C50060E080E00E94A302CE0149960E949D
:1007600009028AE30E94AE01612F70E080E090E010
:100770000E9480026AE880E00E94A302CE01829675
:100780000E9409028AE30E94AE01602F70E080E0BF
:1007900090E00E94800220E84091620067E0CE0174
:1007A00001960E94BC0223E94091610066E0CE01FF
:1007B00009960E94BC02209163004091640065E0AC
:1007C000CE0141960E94BC0280916000882309F40A
:1007D00061C080916300815080936300803809F08C
:1007E000B9C02091640090916200291306C08E5F09
:1007F0008093630010926000ADC041E066E083E04A
:100800000E94B3040F5F8AE88093630082E08093C4
:10081000640081E00E94C50065E881E00E94A302B7
:10082000CE0182960E9409028DE890E00E940902A2
:100830008FE493EC0197F1F700C0000040E066E020
:1008400083E00E94B3049FEF20E782E091502040B4
:100850008040E1F700C00000033009F07BC081E078
:100860000E94C50065E881E00E94A302CE01829645
:100870000E94090285E990E00E9409029FE32DE0B1
:1008800083E0915020408040E1F700C0000000E08C
:1008900010E060C0809163008F5F809363008339B4
:1008A00009F058C02091640090916100291307C09D
:1008B00082508093630081E0809360004BC041E0F0
:1008C00066E083E00E94B3041F5F8AE880936300C0
:1008D00082E08093640081E00E94C50065E881E0C9
:1008E0000E94A302CE0149960E9409028DE890E081
:1008F0000E9409028FE493EC0197F1F700C0000019
:1009000040E066E083E00E94B3049FEF20E782E0CE
:10091000915020408040E1F700C00000133089F47E
:1009200081E00E94C50065E881E00E94A302CE013B
:1009300049960E94090285E990E00E94090200E0C0
:1009400010E09FE32DE083E0915020408040E1F7EC
:1009500000C000000E94E40283E294EF0197F1F7E7
:1009600000C00000F3CE9FEF980F943008F078C0DD
:10097000683008F075C04130B9F58230A1F018F444
:10098000813031F008958330C9F0843011F1089539
:100990002BB381E090E002C0880F991F6A95E2F7BF
:1009A000822B8BBB089528B381E090E002C0880FB2
:1009B000991F6A95E2F7822B88BB089525B381E0E1
:1009C00090E002C0880F991F6A95E2F7822B85BBE1
:1009D000089522B381E090E002C0880F991F6A95C4
:1009E000E2F7822B82BB089541113AC08230A9F010
:1009F00018F4813031F008958330D9F0843029F132
:100A000008952BB381E090E002C0880F991F6A958A
:100A1000E2F7809582238BBB089528B381E090E0B4
:100A200002C0880F991F6A95E2F78095822388BBE0
:100A3000089525B381E090E002C0880F991F6A9560
:100A4000E2F78095822385BB089522B381E090E090
:100A500002C0880F991F6A95E2F78095822382BBB6
:100A600008959FEF980F943088F5683088F58230AC
:100A700091F018F4813031F02DC08330A9F084302A
:100A8000E1F028C089B390E002C0959587956A95FA
:100A9000E2F78170089586B390E002C0959587953E
:100AA0006A95E2F78170089583B390E002C095954E
:100AB00087956A95E2F78170089580B390E002C04F
:100AC000959587956A95E2F7817008958FEF08955F
:100AD0008FEF08958FEF08959FEF980F943090F463
:100AE000823059F018F4813031F00895833039F0B4
:100AF000843039F008956ABB089567BB089564BBDC
:100B0000089561BB08956FEF81E00E946C056FEF5F
:100B100082E00E946C0560E483E00E946C056FEF48
:100B200084E00E946C0508959FEF980F943090F434
:100B3000823059F018F4813031F00895833039F063
:100B4000843039F008956BBB089568BB089565BB88
:100B5000089562BB0895052E97FB1EF400940E9431
:100B6000C20557FD07D00E94CA0507FC03D04EF40A
:100B70000C94C20550954095309521953F4F4F4FAD
:100B80005F4F089590958095709561957F4F8F4F39
:100B90009F4F0895A1E21A2EAA1BBB1BFD010DC099
:100BA000AA1FBB1FEE1FFF1FA217B307E407F5071D
:100BB00020F0A21BB30BE40BF50B661F771F881FF9
:100BC000991F1A9469F760957095809590959B018F
:0C0BD000AC01BD01CF010895F894FFCFE7
:100BDC000101018A010708092F0405062A010203F5
:100BEC002D43003D2B0303030303030303181818C1
:100BFC00181818181800000E0E0E0E000053636F14
:100C0C00726564210057696E7321004D6F68616DC8
:0C0C1C0065642000204F73616D612000B2
:00000001FF
