:100000000C942A000C9447000C9447000C94470071
:100010000C9447000C9447000C9447000C94470044
:100020000C9447000C9447000C9447000C94470034
:100030000C9447000C9447000C9447000C94470024
:100040000C9447000C9447000C9447000C94470014
:100050000C94470011241FBECFE5D8E0DEBFCDBF12
:1000600010E0A0E6B0E0E6E4F1E102C005900D92F8
:10007000A838B107D9F720E0A8E8B0E001C01D9288
:10008000A03FB207E1F70E9440040C94A1080C9431
:100090000000AF92BF92CF92DF92EF92FF920F9348
:1000A0001F93CF93DF93CDB7DEB768970FB6F89461
:1000B000DEBF0FBECDBF80E1E5E6F0E0DE011196C8
:1000C00001900D928A95E1F787E0898B86E08A8B13
:1000D00095E09B8B83E08C8B9D8B94E09E8B8F8B2C
:1000E00082E0888FB12C43C0CB2CD12CE1E1F0E031
:1000F000EC0FFD1FEC0DFD1DA08040E06A2D84E09B
:100100000E942A0510E02BC0E12EF12CE5E1F0E081
:10011000EC0FFD1FEE0DFF1D0081602F83E00E949C
:10012000A80581111BC0EE0CFF1CEE0CFF1C81E02A
:1001300090E08C0F9D1FE80EF91EF701EC0DFD1DE0
:100140001081602F83E00E94A8058823D1F341E04D
:100150006A2D84E00E942A05812F0EC01F5F143093
:1001600098F241E06A2D84E00E942A05B39493E05E
:100170009B1508F0B9CF8FEF68960FB6F894DEBFE5
:100180000FBECDBFDF91CF911F910F91FF90EF90E8
:10019000DF90CF90BF90AF900895CF93C82F40E0ED
:1001A00063E081E00E942A0541E062E081E00E9474
:1001B0002A05C4FB442740F960E082E00E942A053A
:1001C000C5FB442740F961E082E00E942A05C6FB96
:1001D000442740F962E082E00E942A054C2F441F28
:1001E0004427441F64E082E00E942A0540E062E068
:1001F00081E00E942A0541E062E081E00E942A0538
:100200004C2F417060E082E00E942A05C1FB442728
:1002100040F961E082E00E942A05C2FB442740F9D0
:1002200062E082E00E942A05C3FB442740F964E0B3
:1002300082E00E942A0540E062E081E00E942A05F7
:1002400081EE94E00197F1F700C00000CF9108958E
:10025000CF93C82F40E063E081E00E942A0541E08F
:1002600062E081E00E942A05C4FB442740F960E077
:1002700082E00E942A05C5FB442740F961E082E044
:100280000E942A05C6FB442740F962E082E00E94F2
:100290002A054C2F441F4427441F64E082E00E943B
:1002A0002A0540E062E081E00E942A0581EE94E0A8
:1002B0000197F1F700C00000CF9108958DE292E21E
:1002C0000197F1F700C0000080E30E94280181EE51
:1002D00094E00197F1F700C0000080E30E9428013C
:1002E00089EF90E00197F1F700C0000080E30E94E1
:1002F000280189EF90E00197F1F700C0000080E24B
:100300000E94280189EF90E00197F1F700C00000FA
:1003100088E20E94CD0089EF90E00197F1F700C0DC
:10032000000088E00E94CD0089EF90E00197F1F78E
:1003300000C0000081E00E94CD0081EE94E00197B2
:10034000F1F700C000008CE00E94CD0089EF90E042
:100350000197F1F700C0000086E00E94CD0089EF10
:1003600090E00197F1F700C000000895CF93C82FE7
:1003700041E063E081E00E942A0541E062E081E023
:100380000E942A05C4FB442740F960E082E00E94F5
:100390002A05C5FB442740F961E082E00E942A0556
:1003A000C6FB442740F962E082E00E942A054C2FF8
:1003B000441F4427441F64E082E00E942A0540E075
:1003C00062E081E00E942A0541E062E081E00E9453
:1003D0002A054C2F417060E082E00E942A05C1FB93
:1003E000442740F961E082E00E942A05C2FB4427CD
:1003F00040F962E082E00E942A05C3FB442740F9ED
:1004000064E082E00E942A0540E062E081E00E9410
:100410002A0581EE94E00197F1F700C00000CF912A
:1004200008950F931F93CF938C01C0E003C00E94E7
:10043000B601CF5FF801EC0FF11D80818111F7CF7C
:10044000CF911F910F9108958F929F92AF92BF927B
:10045000CF92DF92EF92FF920F931F93CF93DF9390
:100460008A01FA01138A992364F490958095709516
:1004700061957F4F8F4F9F4F812C912C5401839416
:1004800003C0812C912C54010F2EF2E1CF2ED12CE0
:10049000E12CF12CF02D14C0E801CC0DDD1D2AE07B
:1004A00030E040E050E00E946008605D6883622FA9
:1004B000732F842F952FF1E0CF1AD108E108F108AE
:1004C000611571058105910539F789288A288B28DE
:1004D00051F0F801EC0DFD1D8DE2808321E0C21A80
:1004E000D108E108F1088FEFC81AD80AE80AF80A1B
:1004F000C8018C0D9D1DDF91CF911F910F91FF9031
:10050000EF90DF90CF90BF90AF909F908F90089525
:10051000CF93DF93CDB7DEB764970FB6F894DEBF05
:100520000FBECDBF611571058105910541F0AE018A
:100530004F5F5F4F0E9424020E94110203C080E3BC
:100540000E94B60164960FB6F894DEBF0FBECDBF11
:10055000DF91CF9108954F925F926F927F92AF9209
:10056000BF92CF92DF92EF92FF920F931F93CF93A0
:10057000DF93CDB7DEB764970FB6F894DEBF0FBE3A
:10058000CDBF20E030E048EC52E40E94F3070E9427
:100590000607AE014F5F5F4F0E9424028C0180E08E
:1005A00090E0DC0103C00196A11DB11DF801E80F28
:1005B000F91F20812111F7CF6C017D0122E0C21AC1
:1005C000D108E108F10819F480E30E94B601412C3A
:1005D000512C320111C04C145D046E047F0419F4D7
:1005E0008EE20E94B601F50180810E94B601FFEF04
:1005F0004F1A5F0A6F0A7F0A5801A40CB51CF50157
:1006000080818111E8CF64960FB6F894DEBF0FBEEB
:10061000CDBFDF91CF911F910F91FF90EF90DF90B1
:10062000CF90BF90AF907F906F905F904F90089564
:10063000811103C080E8860F10C0813019F480EC6E
:10064000860F0BC0823019F484E9860F06C0833010
:1006500019F484ED860F01C080E880680E94CD0007
:100660000895CF92DF92EF92FF92CF9380918A000C
:100670008F3209F04BC010928A00C0906100D09078
:100680006200E0906300F090640020E030E0A90197
:10069000C701B6010E94EE071816FCF4C091EF00E6
:1006A000EC2FF0E03197EE0FFF1FEE0FFF1FE1562A
:1006B000FF4F6081718182819381A70196010E9421
:1006C000940660936100709362008093630090933E
:1006D0006400C150C093EF0041C081E00E94CD0092
:1006E00085E790E00E94110280E090E0A0E8BFEB77
:1006F0008093610090936200A0936300B0936400C4
:100700001092EF0081E0809388005DC08A3231F55D
:1007100010928A00C091EF00EC2FF0E03197EE0FBD
:10072000FF1FEE0FFF1FE156FF4F60817181828135
:10073000938120916100309162004091630050915B
:1007400064000E94F30760936100709362008093DD
:10075000630090936400C150C093EF0080918900C2
:100760008B3211F08D3251F4E091EF00F0E0E5575B
:10077000FF4F809160008083109289008091EF008C
:10078000E82FF0E0EE0FFF1FEE0FFF1FE156FF4FC7
:10079000409161005091620060916300709164002B
:1007A00040835183628373838F5F8093EF0080E087
:1007B00090E0A0E8BFEB8093610090936200A0936B
:1007C0006300B0936400CF91FF90EF90DF90CF90E3
:1007D00008951F93CF93DF9310E042C0FC01E557CB
:1007E000FF4F20812B32E9F4880F991F880F991F42
:1007F000FC01E156FF4F6081718182819381440F3A
:10080000551F440F551FEA01C156DF4F288139811A
:100810004A815B810E942306688379838A839B8354
:100820001EC02D32E1F4880F991F880F991FFC011B
:10083000E156FF4F6081718182819381440F551F82
:10084000440F551FEA01C156DF4F288139814A8183
:100850005B810E942206688379838A839B831F5F62
:10086000812F90E0AC014F5F5F4F2091EF0030E0AF
:10087000421753070CF4B2CFDF91CF911F91089527
:100880000E94FA056FEF83E00E940B066FEF82E093
:100890000E940B060E945E010E9449008093600046
:1008A0008F3FD1F3809189008D3321F080918800B2
:1008B000813039F41092880081E00E94CD001092BE
:1008C0008900C0916000CA3008F041C060916100A9
:1008D00070916200809163009091640020E030E0AC
:1008E000A9010E948F06882344F41092610010929F
:1008F000620010926300109264006C2F70E080E040
:1009000090E00E94880220E030E040E251E46091F3
:1009100061007091620080916300909164000E9478
:10092000F3076B017C016091600070E080E090E073
:100930000E943E07A70196010E9423066093610072
:10094000709362008093630090936400A5CF6091E0
:10095000610070916200809163009091640020E0DA
:1009600030E0A9010E94EE0788231CF4C33409F08B
:1009700093CFCD3211F128F4CA32A9F0CB3231F144
:100980008BCFCD3361F1C33409F450C0CF3209F0BD
:1009900083CF0E943103809160000E94B6018FE2F4
:1009A00080938A0079CF0E943103809160000E9479
:1009B000B6018AE280938A006FCF8DE2809389002E
:1009C0008C2F0E94B6010E94310366CF8BE2809388
:1009D00089008C2F0E94B6010E9431035DCF8DE308
:1009E000809389000E9431030E94E903809188006E
:1009F000813009F451CF60E083E00E9418038091B8
:100A000060000E94B601E091EF00F0E03197EE0F38
:100A1000FF1FEE0FFF1FE156FF4F60817181828142
:100A200093810E94AB021092EF0036CF81E00E94CA
:100A3000CD001092EF0080E090E0A0E8BFEB809343
:100A4000610090936200A0936300B09364001092E1
:100A50008A0022CF9FEF980F943008F078C068305A
:100A600008F075C04130B9F58230A1F018F481303A
:100A700031F008958330C9F0843011F108952BB31B
:100A800081E090E002C0880F991F6A95E2F7822BFF
:100A90008BBB089528B381E090E002C0880F991FB6
:100AA0006A95E2F7822B88BB089525B381E090E038
:100AB00002C0880F991F6A95E2F7822B85BB0895C3
:100AC00022B381E090E002C0880F991F6A95E2F797
:100AD000822B82BB089541113AC08230A9F018F4EC
:100AE000813031F008958330D9F0843029F10895B0
:100AF0002BB381E090E002C0880F991F6A95E2F75E
:100B0000809582238BBB089528B381E090E002C0DA
:100B1000880F991F6A95E2F78095822388BB089514
:100B200025B381E090E002C0880F991F6A95E2F733
:100B30008095822385BB089522B381E090E002C0B6
:100B4000880F991F6A95E2F78095822382BB0895EA
:100B50009FEF980F943088F5683088F5823091F0D7
:100B600018F4813031F02DC08330A9F08430E1F0E9
:100B700028C089B390E002C0959587956A95E2F701
:100B80008170089586B390E002C0959587956A9527
:100B9000E2F78170089583B390E002C09595879540
:100BA0006A95E2F78170089580B390E002C0959550
:100BB00087956A95E2F7817008958FEF08958FEF1A
:100BC00008958FEF08959FEF980F943090F482303E
:100BD00059F018F4813031F00895833039F08430C1
:100BE00039F008956ABB089567BB089564BB089502
:100BF00061BB08956FEF81E00E94E3056FEF82E033
:100C00000E94E30560E083E00E94E3056FEF84E06B
:100C10000E94E30508959FEF980F943090F482307E
:100C200059F018F4813031F00895833039F0843070
:100C300039F008956BBB089568BB089565BB0895AE
:100C400062BB08955058BB27AA270E943A060C940D
:100C5000B4070E94A60738F00E94AD0720F039F4CF
:100C60009F3F19F426F40C94A3070EF4E095E7FBDC
:100C70000C949D07E92F0E94C50758F3BA17620725
:100C800073078407950720F079F4A6F50C94E7071D
:100C90000EF4E0950B2EBA2FA02D0B01B901900197
:100CA0000C01CA01A0011124FF27591B99F0593FDB
:100CB00050F4503E68F11A16F040A22F232F342F23
:100CC0004427585FF3CF469537952795A795F04071
:100CD0005395C9F77EF41F16BA0B620B730B840B86
:100CE000BAF09150A1F0FF0FBB1F661F771F881F3E
:100CF000C2F70EC0BA0F621F731F841F48F4879596
:100D000077956795B795F7959E3F08F0B0CF939587
:100D1000880F08F09927EE0F9795879508950E9400
:100D2000790708F481E008950E94A8060C94B4079E
:100D30000E94AD0758F00E94A60740F029F45F3FDB
:100D400029F00C949D0751110C94E8070C94A3070B
:100D50000E94C50768F39923B1F3552391F3951BBE
:100D6000550BBB27AA2762177307840738F09F5FCC
:100D70005F4F220F331F441FAA1FA9F335D00E2E39
:100D80003AF0E0E832D091505040E695001CCAF7A6
:100D90002BD0FE2F29D0660F771F881FBB1F261769
:100DA00037074807AB07B0E809F0BB0B802DBF0140
:100DB000FF2793585F4F3AF09E3F510578F00C940F
:100DC0009D070C94E8075F3FE4F3983ED4F38695C3
:100DD00077956795B795F7959F5FC9F7880F911D30
:100DE0009695879597F90895E1E0660F771F881F1C
:100DF000BB1F621773078407BA0720F0621B730BCF
:100E0000840BBA0BEE1F88F7E09508950E940D073A
:100E10006894B1110C94E80708950E94CD0788F0FA
:100E20009F5798F0B92F9927B751B0F0E1F0660FAE
:100E3000771F881F991F1AF0BA95C9F714C0B130EF
:100E400091F00E94E707B1E008950C94E707672F3F
:100E5000782F8827B85F39F0B93FCCF3869577951E
:100E60006795B395D9F73EF4909580957095619507
:100E70007F4F8F4F9F4F0895E89409C097FB3EF432
:100E800090958095709561957F4F8F4F9F4F9923D7
:100E9000A9F0F92F96E9BB279395F6958795779555
:100EA0006795B795F111F8CFFAF4BB0F11F460FF15
:100EB0001BC06F5F7F4F8F4F9F4F16C0882311F06D
:100EC00096E911C0772321F09EE8872F762F05C081
:100ED000662371F096E8862F70E060E02AF09A951C
:100EE000660F771F881FDAF7880F9695879597F911
:100EF0000895990F0008550FAA0BE0E8FEEF1616AB
:100F00001706E807F907C0F012161306E407F507FD
:100F100098F0621B730B840B950B39F40A2661F071
:100F2000232B242B252B21F408950A2609F4A14014
:100F3000A6958FEF811D811D089597F99F6780E821
:100F400070E060E008959FEF80EC089500240A941B
:100F50001616170618060906089500240A94121694
:100F60001306140605060895092E0394000C11F4C7
:100F7000882352F0BB0F40F4BF2B11F460FF04C074
:100F80006F5F7F4F8F4F9F4F089557FD9058440FCD
:100F9000551F59F05F3F71F04795880F97FB991FD8
:100FA00061F09F3F79F08795089512161306140695
:100FB000551FF2CF4695F1DF08C016161706180622
:100FC000991FF1CF86957105610508940895E894FD
:100FD000BB2766277727CB0197F908950E947907E9
:100FE00008F48FEF08950E9406080C94B4070E943D
:100FF000A60738F00E94AD0720F0952311F00C945D
:101000009D070C94A30711240C94E8070E94C507C0
:1010100070F3959FC1F3950F50E0551F629FF0014B
:10102000729FBB27F00DB11D639FAA27F00DB11D64
:10103000AA1F649F6627B00DA11D661F829F2227ED
:10104000B00DA11D621F739FB00DA11D621F839F74
:10105000A00D611D221F749F3327A00D611D231F4A
:10106000849F600D211D822F762F6A2F11249F5798
:1010700050409AF0F1F088234AF0EE0FFF1FBB1F9B
:10108000661F771F881F91505040A9F79E3F51055A
:1010900080F00C949D070C94E8075F3FE4F3983EC2
:1010A000D4F3869577956795B795F795E7959F5F04
:1010B000C1F7FE2B880F911D9695879597F9089596
:1010C000052E97FB1EF400940E94770857FD07D069
:1010D0000E947F0807FC03D04EF40C9477085095CB
:1010E0004095309521953F4F4F4F5F4F0895909514
:1010F0008095709561957F4F8F4F9F4F0895A1E226
:101100001A2EAA1BBB1BFD010DC0AA1FBB1FEE1F81
:10111000FF1FA217B307E407F50720F0A21BB30BCC
:10112000E40BF50B661F771F881F991F1A9469F748
:1011300060957095809590959B01AC01BD01CF01A4
:061140000895F894FFCFB2
:10114600FF000080BF0708092F0405062A010203D5
:101156002D43003D2B4572726F723A204469762EFC
:08116600206279203021000015
:00000001FF
