:100000000C942A000C943F000C943F000C943F0089
:100010000C943F000C943F000C943F000C943F0064
:100020000C943F000C943F000C943F000C943F0054
:100030000C943F000C943F000C943F000C943F0044
:100040000C943F000C943F000C943F000C943F0034
:100050000C943F0011241FBECFE5D8E0DEBFCDBF1A
:1000600010E0A0E6B0E0ECE7F6E002C005900D92EB
:10007000AA3EB107D9F70E9440010C943C030C94AE
:100080000000CF93C82F60E083E00E94A7026C2F8E
:10009000661F6627661F8CE00E94A702C6FB6627C4
:1000A00060F98AE00E94A702C5FB662760F989E033
:1000B0000E94A702C4FB662760F988E00E94A7029D
:1000C00061E082E00E94A7028FEC97E00197F1F7D0
:1000D00000C0000060E082E00E94A7028FEC97E081
:1000E0000197F1F700C00000C3FB662760F98CE0C0
:1000F0000E94A702C2FB662760F98AE00E94A7025D
:10010000C1FB662760F989E00E94A7026C2F61702D
:1001100088E00E94A70261E082E00E94A7028FECC3
:1001200097E00197F1F700C0000060E082E00E94D4
:10013000A7028FEC97E00197F1F700C00000CF9184
:100140000895CF93C82F61E083E00E94A7026C2F2F
:10015000661F6627661F8CE00E94A702C6FB662703
:1001600060F98AE00E94A702C5FB662760F989E072
:100170000E94A702C4FB662760F988E00E94A702DC
:1001800061E082E00E94A7028FEC97E00197F1F70F
:1001900000C0000060E082E00E94A7028FEC97E0C0
:1001A0000197F1F700C00000C3FB662760F98CE0FF
:1001B0000E94A702C2FB662760F98AE00E94A7029C
:1001C000C1FB662760F989E00E94A7026C2F61706D
:1001D00088E00E94A70261E082E00E94A7028FEC03
:1001E00097E00197F1F700C0000060E082E00E9414
:1001F000A7028FEC97E00197F1F700C00000CF91C4
:1002000008952FE788E391E0215080409040E1F786
:1002100000C0000082E00E94410088E20E9441008C
:100220008CE00E94410081E00E9441008FEC97E049
:100230000197F1F700C0000086E00E944100089598
:100240000E94A10008950F931F93CF938C01C0E0EB
:1002500003C00E942001CF5FF801EC0FF11D8081E7
:100260008111F7CFCF911F910F91089581E00E94E6
:1002700041008FEC97E00197F1F700C0000008956E
:10028000CF93DF93CDB7DEB7CA56D1090FB6F89436
:10029000DEBF0FBECDBF0E9497020E9401018EE219
:1002A000E0E6F0E0DE01119601900D928A95E1F70B
:1002B0008CE3EEE8F0E0DE019F9601900D928A95C6
:1002C000E1F70E94360100E010E013C0CE01019674
:1002D0000E942301CE018F960E9423012FEF89E611
:1002E00098E1215080409040E1F700C000000C5E92
:1002F0001F4FDE011196FD0101900020E9F73197B3
:10030000EA1BFB0B0E171F0708F3DBCF982F969500
:10031000969596958770613009F459C020F0623047
:1003200009F4A9C0FCC09130C9F028F0923049F11D
:100330009330D1F1F6C04AB321E030E0B90102C0F8
:10034000660F771F8A95E2F7CB01942F982B9ABB03
:100350009BB3809589238BBB80E0089547B321E050
:1003600030E0B90102C0660F771F8A95E2F7CB0132
:10037000942F982B97BB98B38095892388BB80E0F6
:10038000089544B321E030E0B90102C0660F771F41
:100390008A95E2F7CB01942F982B94BB95B3809567
:1003A000892385BB80E0089541B321E030E0B901A5
:1003B00002C0660F771F8A95E2F7CB01942F982B26
:1003C00091BB92B38095892382BB80E008959130E0
:1003D000C9F028F0923049F19330D1F1A4C04AB36A
:1003E00021E030E0B90102C0660F771F8A95E2F77D
:1003F000CB018095942F98239ABB9BB389238BBB09
:1004000080E0089547B321E030E0B90102C0660FF3
:10041000771F8A95E2F7CB018095942F982397BB9D
:1004200098B3892388BB80E0089544B321E030E08D
:10043000B90102C0660F771F8A95E2F7CB0180955C
:10044000942F982394BB95B3892385BB80E00895AE
:1004500041B321E030E0B90102C0660F771F8A95F1
:10046000E2F7CB018095942F982391BB92B3892317
:1004700082BB80E008959130C9F028F0923049F1B4
:100480009330D1F152C04AB321E030E0B90102C04B
:10049000660F771F8A95E2F7CB01962F90959423EC
:1004A0009ABB9BB3892B8BBB80E0089547B321E0B7
:1004B00030E0B90102C0660F771F8A95E2F7CB01E1
:1004C000962F9095942397BB98B3892B88BB80E097
:1004D000089544B321E030E0B90102C0660F771FF0
:1004E0008A95E2F7CB01962F9095942394BB95B310
:1004F000892B85BB80E0089541B321E030E0B9014C
:1005000002C0660F771F8A95E2F7CB01962F909570
:10051000942391BB92B3892B82BB80E0089581E044
:10052000089581E0089581E0089581E00895CF93D2
:10053000C0E009C0EC2FF0E0E653FF4F60818C2F44
:100540000E948601CF5FC032A8F3CF910895982F03
:100550009695969596958770662309F443C0613009
:1005600009F084C09130A1F028F09230F9F0933076
:1005700059F17EC04BB321E030E0B90102C0660FF3
:10058000771F8A95E2F7CB01842B8BBB80E008951F
:1005900048B321E030E0B90102C0660F771F8A95A9
:1005A000E2F7CB01842B88BB80E0089545B321E0BE
:1005B00030E0B90102C0660F771F8A95E2F7CB01E0
:1005C000842B85BB80E0089542B321E030E0B9017F
:1005D00002C0660F771F8A95E2F7CB01842B82BB9E
:1005E00080E008959130A9F028F0923009F193301D
:1005F00071F140C04BB321E030E0B90102C0660F99
:10060000771F8A95E2F7CB01809584238BBB80E02E
:10061000089548B321E030E0B90102C0660F771FAA
:100620008A95E2F7CB018095842388BB80E008950A
:1006300045B321E030E0B90102C0660F771F8A950B
:10064000E2F7CB018095842385BB80E0089542B317
:1006500021E030E0B90102C0660F771F8A95E2F70A
:10066000CB018095842382BB80E0089583E00895C8
:0C06700081E0089581E00895F894FFCF28
:10067C004F6E63652075706F6E20612074696D65B7
:10068C002C20746865726520776173206120626F1D
:10069C0079206E616D6564204A6F686E2E0020486B
:1006AC0065206C6F76656420746F20676F206F6EA9
:1006BC0020616476656E747572657320696E207442
:1006CC00686520666F72657374206E656172206850
:1006DC00697320686F7573652E00010100000000BE
:1006EC0000000000000000000000000002020202F6
:0A06FC0000000000000000000000F4
:00000001FF
