S01300005761746572204C6576656C2E73726563F6
S11300000C942A000C9434000C9434000C943400A6
S11300100C9434000C9434000C9434000C9434008C
S11300200C9434000C9434000C9434000C9434007C
S11300300C9434000C9434000C9434000C9434006C
S11300400C9434000C9434000C9434000C9434005C
S11300500C94340011241FBECFE5D8E0DEBFCDBF21
S11300600E9436000C9461010C9400000E94390136
S11300706FEF81E00E944A0160E081E00E94E700A6
S113008041E0811140E060E082E00E94690061E0AB
S113009081E00E94E70041E0811140E061E082E0FC
S11300A00E94690062E081E00E94E70041E0811162
S11300B040E062E082E00E94690063E081E00E9427
S11300C0E70041E0811140E063E082E00E946900C2
S11300D0D3CF9FEF980F943008F078C0683008F0C1
S11300E075C04130B9F58230A1F018F4813031F097
S11300F008958330C9F0843011F108952BB381E061
S113010090E002C0880F991F6A95E2F7822B8BBB9F
S1130110089528B381E090E002C0880F991F6A9582
S1130120E2F7822B88BB089525B381E090E002C0FA
S1130130880F991F6A95E2F7822B85BB089522B335
S113014081E090E002C0880F991F6A95E2F7822B44
S113015082BB089541113AC08230A9F018F481306D
S113016031F008958330D9F0843029F108952BB308
S113017081E090E002C0880F991F6A95E2F78095AC
S113018082238BBB089528B381E090E002C0880FDE
S1130190991F6A95E2F78095822388BB089525B359
S11301A081E090E002C0880F991F6A95E2F780957C
S11301B0822385BB089522B381E090E002C0880FBA
S11301C0991F6A95E2F78095822382BB08959FEF79
S11301D0980F943088F5683088F5823091F018F4DF
S11301E0813031F02DC08330A9F08430E1F028C093
S11301F089B390E002C0959587956A95E2F781707E
S1130200089586B390E002C0959587956A95E2F7C4
S11302108170089583B390E002C0959587956A959F
S1130220E2F78170089580B390E002C095958795B8
S11302306A95E2F7817008958FEF08958FEF08951E
S11302408FEF08959FEF980F943090F4823059F017
S113025018F4813031F00895833039F0843039F066
S113026008956ABB089567BB089564BB089561BB94
S113027008956FEF81E00E9422016FEF82E00E94F7
S1130280220160E483E00E9422016FEF84E00E9477
S1130290220108959FEF980F943090F4823059F022
S11302A018F4813031F00895833039F0843039F016
S11302B008956BBB089568BB089565BB089562BB40
S10902C00895F894FFCF3D
S9030000FC
