S016000043796265722053656375726974792E73726563A1
S11300000C942A000C940D050C9436050C945F0591
S11300100C9447000C9447000C9447000C94470040
S11300200C9447000C9447000C9447000C94470030
S11300300C9447000C94BA050C9447000C94E30507
S11300400C9447000C9447000C9447000C94470010
S11300500C94470011241FBECFE5D8E0DEBFCDBF0E
S113006011E0A0E6B0E0E2ECF5E102C005900D92EB
S1130070AA30B107D9F721E0AAE0B1E001C01D928E
S1130080A33BB207E1F70E94B8000C94DF0A0C947A
S113009000008F929F92AF92BF92CF92DF92EF9225
S11300A0FF928090700090907100A0907200B090C8
S11300B07300C0906000D0906100E0906200F09006
S11300C06300A50194012350310941095109C70175
S11300D0B6010E947106680D791D8A1D9B1D6093EF
S11300E0700070937100809372009093730022E00B
S11300F0C20ED11CE11CF11CC0926000D0926100C0
S1130100E0926200F0926300FF90EF90DF90CF9056
S1130110BF90AF909F908F9008958BE191E00E94E3
S11301201E06883021F56AE081E00E94E4022091F5
S11301300A0130910B0144E1429FC001439F900D9D
S11301401124855E9E4F0E94D10288E790E00E94B0
S1130150D10280910A0190910B01019690930B01B9
S113016080930A0180910C018F5F80930C010895A4
S1130170CF93DF93CDB7DEB760970FB6F894DEBFA9
S11301800FBECDBF0E9468040E94AF0278940E9403
S113019088050E94AD058CE096E00E94B1058CE0D4
S11301A0ECEBF0E0DE01139601900D928A95E1F7F5
S11301B040E150E0BE01615F7F4FCE0103960E9493
S11301C0BD06162F072FF82EE92E40E150E0BE01A0
S11301D0615F7F4F8F8598890E94BD069F938F939F
S11301E07F936F93EF92FF920F931F938CE790E0AE
S11301F09F938F930E94DC070FB6F894DEBF0FBE67
S1130200CDBF00E010E00E948D00E4C040E150E06A
S1130210BE016F5F7F4F8BE191E00E94BD066B01D1
S11302207C0140E150E0BE016F5F7F4F89819A817C
S11302300E94BD06AB01BC0180910C0181508093EA
S11302400C0180916C0090916D00A0E0B0E0C816A4
S1130250D906EA06FB0631F50E94F20260E080E06E
S11302600E94E4020E944900609370007093710040
S1130270809372009093730080916A0090916B0058
S11302800E942A0389E790E00E94D10260917000E5
S11302907091710080917200909173000E94FC0231
S11302A011E098C080916E0090916F00A0E0B0E0E2
S11302B0C816D906EA06FB0609F03FC0013091F5DD
S11302C08091640090916500A0E0B0E04817590760
S11302D06A077B07E1F40E94F20260E080E00E947A
S11302E0E40280916E0090916F000E942A0389E7D6
S11302F090E00E94D10280916400909165000E9478
S11303002A0388B3816088BB00E010E063C00E94C8
S1130310F20260E080E00E94E40286EA90E00E943B
S1130320D10258C00E94F20260E080E00E94E40220
S11303308DEA90E00E94D1024DC0809168009091B6
S11303406900A0E0B0E0C816D906EA06FB0609F089
S113035041C01130A1F5C0907000D0907100E090C0
S11303607200F09073008091740090917500A091D8
S11303707600B09177008C259D25AE25BF254817C2
S113038059076A077B0779F40E94F20260E080E073
S11303900E94E40280916600909167000E942A0303
S11303A001E010E017C00E94F20260E080E00E94C9
S11303B0E40286EA90E00E94D10210E00BC00E94A1
S11303C0F20260E080E00E94E40286EA90E00E948B
S11303D0D10210E080910C01811118CF14CFCF937A
S11303E0C82F60E081E00E9478046C2F661F6627A6
S11303F0661F87E00E947804C6FB662760F986E0E2
S11304000E947804C5FB662760F985E00E947804A1
S1130410C4FB662760F984E00E94780461E083E00D
S11304200E9478048FE99FE00197F1F700C0000073
S113043060E083E00E9478048FE99FE00197F1F780
S113044000C00000C3FB662760F987E00E947804BF
S1130450C2FB662760F986E00E947804C1FB662728
S113046060F985E00E9478046C2F617084E00E943A
S1130470780461E083E00E9478048FE99FE00197AB
S1130480F1F700C0000060E083E00E9478048FE987
S11304909FE00197F1F700C00000CF910895CF933A
S11304A0C82F61E081E00E9478046C2F661F6627E4
S11304B0661F87E00E947804C6FB662760F986E021
S11304C00E947804C5FB662760F985E00E947804E1
S11304D0C4FB662760F984E00E94780461E083E04D
S11304E00E9478048FE99FE00197F1F700C00000B3
S11304F060E083E00E9478048FE99FE00197F1F7C0
S113050000C00000C3FB662760F987E00E947804FE
S1130510C2FB662760F986E00E947804C1FB662767
S113052060F985E00E9478046C2F617084E00E9479
S1130530780461E083E00E9478048FE99FE00197EA
S1130540F1F700C0000060E083E00E9478048FE9C6
S11305509FE00197F1F700C00000CF9108952FEFBD
S113056080E792E0215080409040E1F700C0000015
S113057082E00E94EF0188E20E94EF018CE00E9479
S1130580EF0181E00E94EF018FE99FE00197F1F70D
S113059000C0000086E00E94EF0108950E944F020F
S11305A008950F931F93CF938C01C0E003C00E9462
S11305B0CE02CF5FF801EC0FF11D80818111F7CFDE
S11305C0CF911F910F910895811105C0862F8068E6
S11305D00E94EF010895813021F480EC860F0E947F
S11305E0EF01089581E00E94EF018FE99FE00197F8
S11305F0F1F700C0000008950F931F93CF93DF938A
S1130600CDB7DEB72B970FB6F894DEBF0FBECDBFC4
S11306109F938F937F936F9388EC90E09F938F9336
S11306208E010F5F1F4F1F930F930E94F207C801A3
S11306300E94D1020FB6F894DEBF0FBECDBF2B9639
S11306400FB6F894DEBF0FBECDBFDF91CF911F91DF
S11306500F9108950F931F93CF93DF93CDB7DEB718
S11306602A970FB6F894DEBF0FBECDBF9F938F932A
S11306708EEC90E09F938F938E010F5F1F4F1F931B
S11306800F930E94F207C8010E94D1020F900F90AD
S11306900F900F900F900F902A960FB6F894DEBF2C
S11306A00FBECDBFDF91CF911F910F910895982F69
S11306B09695969596958770613009F459C020F007
S11306C0623009F4A9C0FCC09130C9F028F092301E
S11306D049F19330D1F1F6C04AB321E030E0B901D9
S11306E002C0660F771F8A95E2F7CB01942F982BEF
S11306F09ABB9BB3809589238BBB80E0089547B355
S113070021E030E0B90102C0660F771F8A95E2F755
S1130710CB01942F982B97BB98B38095892388BBE2
S113072080E0089544B321E030E0B90102C0660FCF
S1130730771F8A95E2F7CB01942F982B94BB95B33E
S11307408095892385BB80E0089541B321E030E0A2
S1130750B90102C0660F771F8A95E2F7CB01942F87
S1130760982B91BB92B38095892382BB80E0089536
S11307709130C9F028F0923049F19330D1F1A4C0FE
S11307804AB321E030E0B90102C0660F771F8A95B1
S1130790E2F7CB018095942F98239ABB9BB38923CE
S11307A08BBB80E0089547B321E030E0B90102C07B
S11307B0660F771F8A95E2F7CB018095942F9823D3
S11307C097BB98B3892388BB80E0089544B321E0A4
S11307D030E0B90102C0660F771F8A95E2F7CB01BA
S11307E08095942F982394BB95B3892385BB80E08F
S11307F0089541B321E030E0B90102C0660F771FCC
S11308008A95E2F7CB018095942F982391BB92B3FC
S1130810892382BB80E008959130C9F028F092309A
S113082049F19330D1F152C04AB321E030E0B9012B
S113083002C0660F771F8A95E2F7CB01962F909539
S113084094239ABB9BB3892B8BBB80E0089547B359
S113085021E030E0B90102C0660F771F8A95E2F704
S1130860CB01962F9095942397BB98B3892B88BB83
S113087080E0089544B321E030E0B90102C0660F7E
S1130880771F8A95E2F7CB01962F9095942394BB1A
S113089095B3892B85BB80E0089541B321E030E016
S11308A0B90102C0660F771F8A95E2F7CB01962F34
S11308B09095942391BB92B3892B82BB80E00895D9
S11308C081E0089581E0089581E0089581E008952C
S11308D0CF93C0E009C0EC2FF0E0EF52FF4F6081EE
S11308E08C2F0E945703CF5FC032A8F3CF91089595
S11308F0982F9695969596958770662309F443C02C
S1130900613009F084C09130A1F028F09230F9F000
S1130910933059F17EC04BB321E030E0B90102C0FD
S1130920660F771F8A95E2F7CB01842B8BBB80E09F
S1130930089548B321E030E0B90102C0660F771F83
S11309408A95E2F7CB01842B88BB80E0089545B3F8
S113095021E030E0B90102C0660F771F8A95E2F703
S1130960CB01842B85BB80E0089542B321E030E0C5
S1130970B90102C0660F771F8A95E2F7CB01842B79
S113098082BB80E008959130A9F028F0923009F1FB
S1130990933071F140C04BB321E030E0B90102C0A3
S11309A0660F771F8A95E2F7CB01809584238BBB72
S11309B080E0089548B321E030E0B90102C0660F39
S11309C0771F8A95E2F7CB018095842388BB80E06A
S11309D0089545B321E030E0B90102C0660F771FE6
S11309E08A95E2F7CB018095842385BB80E0089546
S11309F042B321E030E0B90102C0660F771F8A9547
S1130A00E2F7CB018095842382BB80E0089583E0E4
S1130A10089581E0089581E008951F920F920FB622
S1130A200F9211242F933F934F935F936F937F9370
S1130A308F939F93AF93BF93EF93FF93E091110133
S1130A40F0911201309709F00995FF91EF91BF9150
S1130A50AF919F918F917F916F915F914F913F9152
S1130A602F910F900FBE0F901F9018951F920F9209
S1130A700FB60F9211242F933F934F935F936F936D
S1130A807F938F939F93AF93BF93EF93FF93E091E3
S1130A900F01F0911001309709F00995FF91EF9142
S1130AA0BF91AF919F918F917F916F915F914F9182
S1130AB03F912F910F900FBE0F901F9018951F928A
S1130AC00F920FB60F9211242F933F934F935F937E
S1130AD06F937F938F939F93AF93BF93EF93FF9302
S1130AE0E0910D01F0910E01309709F00995FF9105
S1130AF0EF91BF91AF919F918F917F916F915F9192
S1130B004F913F912F910F900FBE0F901F9018950A
S1130B1010BC83E389B98091F100813041F018F071
S1130B20823049F00AC08AB188608AB906C08AB1A5
S1130B3080618AB902C088E18AB980B5846080BDC9
S1130B4080B5826080BD80B58F7D80BD80B58F7E8D
S1130B5080BD80B5877F80BD08958AB180688AB9D9
S1130B600895909319018093180108952CB1FC0104
S1130B70208308951F920F920FB60F9211242F9382
S1130B803F934F935F936F937F938F939F93AF9311
S1130B90BF93EF93FF93E0911801F09119013097FF
S1130BA009F00995FF91EF91BF91AF919F918F91BA
S1130BB07F916F915F914F913F912F910F900FBE55
S1130BC00F901F9018951F920F920FB60F92112439
S1130BD02F933F934F935F936F937F938F939F9341
S1130BE0AF93BF93EF93FF93E0911601F091170138
S1130BF0309709F00995FF91EF91BF91AF919F91C3
S1130C008F917F916F915F914F913F912F910F90B1
S1130C100FBE0F901F9018958091150190E08D568E
S1130C209E4F0E94B605809115018F5F8093150138
S1130C3080911A018F5F80931A010895CF93DF93F7
S1130C40BC0190911A01992309F447C090911401B1
S1130C50292F30E0F901ED56FE4F4081411110C0BB
S1130C60109213019F5F9093140180911A01815097
S1130C7080931A0198B381E0892788BB88E02EC04D
S1130C80EB016091130170E0FE01E60FF71FD9013B
S1130C90AD56BE4F8C91808381E090E00E94E402C7
S1130CA080911301C80FD11D888190E00E94CE026B
S1130CB088E790E00E94D102809113018F5F8093B6
S1130CC01301809114018F5F8093140180911A01A4
S1130CD0815080931A0189E001C080E0DF91CF91B7
S1130CE00895DB018F939F930E949006BF91AF916B
S1130CF0A29F800D911DA39F900DB29F900D112472
S1130D000895A29FB001B39FC001A39F700D811DE0
S1130D101124911DB29F700D811D1124911D089500
S1130D200E948106A59F900DB49F900DA49F800DF5
S1130D30911D11240895A1E21A2EAA1BBB1BFD01CB
S1130D400DC0AA1FBB1FEE1FFF1FA217B307E407A6
S1130D50F50720F0A21BB30BE40BF50B661F771FFE
S1130D60881F991F1A9469F76095709580959095DE
S1130D709B01AC01BD01CF010895A0E0B0E0E3EC1C
S1130D80F6E00C94A90A5C016B017A016115710506
S1130D9019F0FB0191838083E114F10429F0C70168
S1130DA00297839708F0E5C0E5012196F5011081CB
S1130DB0812F90E00E94D307892B11F05E01F4CFBC
S1130DC01D3229F42196F501118101E007C01B327F
S1130DD021F4E5012296F501118100E0E114F1040A
S1130DE009F1F0E1EF16F10429F43FC010E3E11436
S1130DF0F10421F128E0E216F10401F154F4E2E0F7
S1130E00EE16F10421F5812C912CA12CB0E4BB2E1B
S1130E103EC0FAE0EF16F10439F020E1E216F104E5
S1130E20B1F430C0103319F1FAE0EF2EF12CACEC30
S1130E308A2E982CA82CACE0BA2E29C078E0E72E94
S1130E40F12C812C912CA12CE0E1BE2E20C060E07D
S1130E5070E080E090E897010F2C000C440B550BD8
S1130E600E949B0649015A0112C0103359F488812B
S1130E708F7D883509F0BACF19812296026080E10E
S1130E80E82EF12C812C912CA12C68E0B62E40E0A8
S1130E9060E070E0CB0127010F2C000C6608770896
S1130EA0FE0150ED352E310E29E0231570F42FEBA1
S1130EB0210F2A3118F439EC332E06C02FE9210F03
S1130EC02A3118F529EA322E310E232D30E02E1561
S1130ED03F05DCF447FD16C086169706A806B9063A
S1130EE070F0A30192010E947106630D711D811DB2
S1130EF0911D61307105810520E8920710F04FEFD4
S1130F0001C041E021961081CBCF202F2170C11464
S1130F10D10471F0442329F02197F601D183C083D1
S1130F2007C001FF19C02297F601D183C08314C002
S1130F3047FF12C0222329F060E070E080E090E8CF
S1130F4004C06FEF7FEF8FEF9FE722E230E0309332
S1130F50AC012093AB0109C0222381F090958095C8
S1130F60709561957F4F8F4F9F4F462F372F282FB6
S1130F7012C040E030E020E090E00DC097FFF5CFD4
S1130F8082E290E09093AC018093AB016FEF7FEF2E
S1130F908FEF9FE7EACF642F732F822FCDB7DEB791
S1130FA0E1E10C94C50A91110C94F509803219F011
S1130FB089508550C8F70895A0E0B0E0E2EEF7E06C
S1130FC00C94B80AAE014B5F5F4FFA0161917191C5
S1130FD0AF018091AF019091B0010E941408E2E04A
S1130FE00C94D40AAEE0B0E0E8EFF7E00C94B60A53
S1130FF00D891E8986E08C831A8309838FEF9FE70E
S11310009E838D83AE01475E5F4F6F89788DCE01DD
S113101001960E941408EF81F885E00FF11F1082F9
S11310202E96E4E00C94D20AABE0B0E0EAE1F8E0FA
S11310300C94A80A6C017B018A01FC0117821682B8
S1131040838181FFCCC1CE0101963C01F6019381DD
S1131050F70193FD859193FF81917F01882309F422
S1131060BAC1853239F493FD859193FF81917F0153
S1131070853229F4B60190E00E940E0AE7CF912C44
S1131080212C312CFFE1F315D8F08B3279F038F4B0
S1131090803279F08332A1F4232D20611DC08D327A
S11310A061F0803369F4232D216016C0832D8260A2
S11310B0382EE32DE4603E2E2AC0F32DF8601DC0C7
S11310C037FC2DC020ED280F2A3040F08E32B9F4C1
S11310D036FC81C1232D2064322E19C036FE06C091
S11310E08AE0989E200D1124922E11C0EAE02E9ED3
S11310F0200D1124222EF32DF0623F2E08C08C36D1
S113110021F4832D8068382E02C0883641F4F7011B
S113111093FD859193FF81917F018111B3CF982F26
S11311209F7D9554933028F40C5F1F4F9FE3998360
S11311300DC0833631F0833771F0833509F059C01F
S113114021C0F801808189830E5F1F4F8824839416
S1131150912C530113C02801F2E04F0E511CF801E9
S1131160A080B18036FE03C0692D70E002C06FEF2D
S11311707FEFC5010E94030A4C018201F32DFF7722
S11311803F2E16C0280122E0420E511CF801A08017
S1131190B18036FE03C0692D70E002C06FEF7FEFAF
S11311A0C5010E94F8094C01F32DF0683F2E82011D
S11311B033FC1BC0822D90E088169906B0F4B6016A
S11311C080E290E00E940E0A2A94F4CFF50137FCE5
S11311D0859137FE81915F01B60190E00E940E0A6D
S11311E021102A9421E0821A91088114910471F744
S11311F0E8C0843611F0893641F5F80137FE07C09E
S113120060817181828193810C5F1F4F08C060816E
S11312107181072E000C880B990B0E5F1F4FF32D65
S1131220FF763F2E97FF09C0909580957095619544
S11312307F4F8F4F9F4FF0683F2E2AE030E0A3018D
S11312400E944A0A882E861845C0853731F4232D1A
S11312502F7EB22E2AE030E025C0932D997FB92E3F
S11312608F36C1F018F4883579F0B5C0803719F09D
S1131270883721F0B0C0E92FE061BE2EB4FE0DC066
S1131280FB2DF460BF2E09C034FE0AC0292F26604E
S1131290B22E06C028E030E005C020E130E002C0F4
S11312A020E132E0F801B7FE07C0608171818281DC
S11312B093810C5F1F4F06C06081718180E090E0D4
S11312C00E5F1F4FA3010E944A0A882E8618FB2D29
S11312D0FF773F2E36FE0DC0232D2E7FA22E8914BC
S11312E058F434FE0BC032FC09C0832D8E7EA82E28
S11312F005C0B82CA32C03C0B82C01C0B92CA4FE83
S11313000FC0FE01E80DF11D8081803321F49A2D78
S1131310997EA92E09C0A2FE06C0B394B39404C05A
S11313208A2D867809F0B394A3FC11C0A0FE06C0F0
S1131330B21488F4280C922C9B180EC0B21460F4DA
S1131340B60180E290E00E940E0AB394F7CFB21483
S113135018F42B1802C0982C212CA4FE10C0B6013E
S113136080E390E00E940E0AA2FE17C0A1FC03C015
S113137088E790E002C088E590E0B6010CC08A2DB1
S1131380867859F0A1FE02C08BE201C080E2A7FC7E
S11313908DE2B60190E00E940E0A891438F4B60179
S11313A080E390E00E940E0A9A94F7CF8A94F301A6
S11313B0E80DF11D8081B60190E00E940E0A8110B3
S11313C0F5CF222009F442CEB60180E290E00E94DB
S11313D00E0A2A94F6CFF6018681978102C08FEF18
S11313E09FEF2B96E2E10C94C40A9927882708956D
S11313F0FC010590615070400110D8F780959095DC
S11314008E0F9F1F0895FC016150704001900110E0
S1131410D8F7809590958E0F9F1F08950F931F9373
S1131420CF93DF93FB01238121FD03C08FEF9FEF57
S11314302CC022FF16C04681578124813581421772
S1131440530744F4A081B1819D012F5F3F4F318345
S113145020838C93268137812F5F3F4F37832683E8
S113146014C08B01EC01FB010084F185E02D09958A
S1131470892BE1F6D80116968D919C9117970196C8
S113148017969C938E931697CE01DF91CF911F915F
S11314900F910895FA01AA27283051F1203181F1E2
S11314A0E8946F936E7F6E5F7F4F8F4F9F4FAF4F68
S11314B0B1E03ED0B4E03CD0670F781F891F9A1F7B
S11314C0A11D680F791F8A1F911DA11D6A0F711D2F
S11314D0811D911DA11D20D009F468943F912AE03B
S11314E0269F11243019305D3193DEF6CF01089523
S11314F0462F4770405D4193B3E00FD0C9F7F6CF54
S1131500462F4F70405D4A3318F0495D31FD40521B
S1131510419302D0A9F7EACFB4E0A69597958795B1
S113152077956795BA95C9F7009761057105089590
S11315309B01AC010A2E069457954795379527953C
S1131540BA95C9F7620F731F841F951FA01D0895D4
S11315502F923F924F925F926F927F928F929F92BF
S1131560AF92BF92CF92DF92EF92FF920F931F93AD
S1131570CF93DF93CDB7DEB7CA1BDB0B0FB6F8945E
S1131580DEBF0FBECDBF09942A88398848885F849E
S11315906E847D848C849B84AA84B984C884DF800F
S11315A0EE80FD800C811B81AA81B981CE0FD11DF3
S11315B00FB6F894DEBF0FBECDBFED010895F894C9
S10515C0FFCF57
S11315C20100000000AA0267022701670127013116
S11315D2785634123535352720202000546865208A
S11315E2646563696D616C206571756976616C65AA
S11315F26E7473206172653A20256C642C20256C0C
S1131602642C202E0A0037463237333500414343D7
S11316124553532044454E4945442000323030312D
S113162220363063306330002530386C580025583A
S113163200000000000000000000000100000000A3
S1131642000000000000000000020202000000018D
S1131652020200010200000300000000000000007A
S10D1662000000000000000000007A
S9030000FC
